{
  "_format": "hh-sol-artifact-1",
  "contractName": "MockUSDC",
  "sourceName": "contracts/MockUSDC.sol",
  "abi": [
    {
      "inputs": [
        {
          "internalType": "string",
          "name": "_name",
          "type": "string"
        },
        {
          "internalType": "string",
          "name": "_symbol",
          "type": "string"
        },
        {
          "internalType": "uint8",
          "name": "_decimals",
          "type": "uint8"
        },
        {
          "internalType": "uint256",
          "name": "_initialSupply",
          "type": "uint256"
        }
      ],
      "stateMutability": "nonpayable",
      "type": "constructor"
    },
    {
      "inputs": [
        {
          "internalType": "address",
          "name": "spender",
          "type": "address"
        },
        {
          "internalType": "uint256",
          "name": "allowance",
          "type": "uint256"
        },
        {
          "internalType": "uint256",
          "name": "needed",
          "type": "uint256"
        }
      ],
      "name": "ERC20InsufficientAllowance",
      "type": "error"
    },
    {
      "inputs": [
        {
          "internalType": "address",
          "name": "sender",
          "type": "address"
        },
        {
          "internalType": "uint256",
          "name": "balance",
          "type": "uint256"
        },
        {
          "internalType": "uint256",
          "name": "needed",
          "type": "uint256"
        }
      ],
      "name": "ERC20InsufficientBalance",
      "type": "error"
    },
    {
      "inputs": [
        {
          "internalType": "address",
          "name": "approver",
          "type": "address"
        }
      ],
      "name": "ERC20InvalidApprover",
      "type": "error"
    },
    {
      "inputs": [
        {
          "internalType": "address",
          "name": "receiver",
          "type": "address"
        }
      ],
      "name": "ERC20InvalidReceiver",
      "type": "error"
    },
    {
      "inputs": [
        {
          "internalType": "address",
          "name": "sender",
          "type": "address"
        }
      ],
      "name": "ERC20InvalidSender",
      "type": "error"
    },
    {
      "inputs": [
        {
          "internalType": "address",
          "name": "spender",
          "type": "address"
        }
      ],
      "name": "ERC20InvalidSpender",
      "type": "error"
    },
    {
      "anonymous": false,
      "inputs": [
        {
          "indexed": true,
          "internalType": "address",
          "name": "owner",
          "type": "address"
        },
        {
          "indexed": true,
          "internalType": "address",
          "name": "spender",
          "type": "address"
        },
        {
          "indexed": false,
          "internalType": "uint256",
          "name": "value",
          "type": "uint256"
        }
      ],
      "name": "Approval",
      "type": "event"
    },
    {
      "anonymous": false,
      "inputs": [
        {
          "indexed": true,
          "internalType": "address",
          "name": "previousOwner",
          "type": "address"
        },
        {
          "indexed": true,
          "internalType": "address",
          "name": "newOwner",
          "type": "address"
        }
      ],
      "name": "OwnershipTransferred",
      "type": "event"
    },
    {
      "anonymous": false,
      "inputs": [
        {
          "indexed": true,
          "internalType": "address",
          "name": "to",
          "type": "address"
        },
        {
          "indexed": false,
          "internalType": "uint256",
          "name": "amount",
          "type": "uint256"
        }
      ],
      "name": "TokensMinted",
      "type": "event"
    },
    {
      "anonymous": false,
      "inputs": [
        {
          "indexed": true,
          "internalType": "address",
          "name": "from",
          "type": "address"
        },
        {
          "indexed": true,
          "internalType": "address",
          "name": "to",
          "type": "address"
        },
        {
          "indexed": false,
          "internalType": "uint256",
          "name": "value",
          "type": "uint256"
        }
      ],
      "name": "Transfer",
      "type": "event"
    },
    {
      "inputs": [
        {
          "internalType": "address",
          "name": "owner",
          "type": "address"
        },
        {
          "internalType": "address",
          "name": "spender",
          "type": "address"
        }
      ],
      "name": "allowance",
      "outputs": [
        {
          "internalType": "uint256",
          "name": "",
          "type": "uint256"
        }
      ],
      "stateMutability": "view",
      "type": "function"
    },
    {
      "inputs": [
        {
          "internalType": "address",
          "name": "spender",
          "type": "address"
        },
        {
          "internalType": "uint256",
          "name": "value",
          "type": "uint256"
        }
      ],
      "name": "approve",
      "outputs": [
        {
          "internalType": "bool",
          "name": "",
          "type": "bool"
        }
      ],
      "stateMutability": "nonpayable",
      "type": "function"
    },
    {
      "inputs": [
        {
          "internalType": "address",
          "name": "account",
          "type": "address"
        }
      ],
      "name": "balanceOf",
      "outputs": [
        {
          "internalType": "uint256",
          "name": "",
          "type": "uint256"
        }
      ],
      "stateMutability": "view",
      "type": "function"
    },
    {
      "inputs": [
        {
          "internalType": "uint256",
          "name": "_amount",
          "type": "uint256"
        }
      ],
      "name": "burn",
      "outputs": [],
      "stateMutability": "nonpayable",
      "type": "function"
    },
    {
      "inputs": [],
      "name": "decimals",
      "outputs": [
        {
          "internalType": "uint8",
          "name": "",
          "type": "uint8"
        }
      ],
      "stateMutability": "view",
      "type": "function"
    },
    {
      "inputs": [
        {
          "internalType": "uint256",
          "name": "_amount",
          "type": "uint256"
        }
      ],
      "name": "faucet",
      "outputs": [],
      "stateMutability": "nonpayable",
      "type": "function"
    },
    {
      "inputs": [
        {
          "internalType": "address",
          "name": "_to",
          "type": "address"
        },
        {
          "internalType": "uint256",
          "name": "_amount",
          "type": "uint256"
        }
      ],
      "name": "mint",
      "outputs": [],
      "stateMutability": "nonpayable",
      "type": "function"
    },
    {
      "inputs": [],
      "name": "name",
      "outputs": [
        {
          "internalType": "string",
          "name": "",
          "type": "string"
        }
      ],
      "stateMutability": "view",
      "type": "function"
    },
    {
      "inputs": [],
      "name": "owner",
      "outputs": [
        {
          "internalType": "address",
          "name": "",
          "type": "address"
        }
      ],
      "stateMutability": "view",
      "type": "function"
    },
    {
      "inputs": [],
      "name": "symbol",
      "outputs": [
        {
          "internalType": "string",
          "name": "",
          "type": "string"
        }
      ],
      "stateMutability": "view",
      "type": "function"
    },
    {
      "inputs": [],
      "name": "totalSupply",
      "outputs": [
        {
          "internalType": "uint256",
          "name": "",
          "type": "uint256"
        }
      ],
      "stateMutability": "view",
      "type": "function"
    },
    {
      "inputs": [
        {
          "internalType": "address",
          "name": "to",
          "type": "address"
        },
        {
          "internalType": "uint256",
          "name": "value",
          "type": "uint256"
        }
      ],
      "name": "transfer",
      "outputs": [
        {
          "internalType": "bool",
          "name": "",
          "type": "bool"
        }
      ],
      "stateMutability": "nonpayable",
      "type": "function"
    },
    {
      "inputs": [
        {
          "internalType": "address",
          "name": "from",
          "type": "address"
        },
        {
          "internalType": "address",
          "name": "to",
          "type": "address"
        },
        {
          "internalType": "uint256",
          "name": "value",
          "type": "uint256"
        }
      ],
      "name": "transferFrom",
      "outputs": [
        {
          "internalType": "bool",
          "name": "",
          "type": "bool"
        }
      ],
      "stateMutability": "nonpayable",
      "type": "function"
    },
    {
      "inputs": [
        {
          "internalType": "address",
          "name": "_newOwner",
          "type": "address"
        }
      ],
      "name": "transferOwnership",
      "outputs": [],
      "stateMutability": "nonpayable",
      "type": "function"
    }
  ],
  "bytecode": "0x60806040523480156200001157600080fd5b506040516200144e3803806200144e83398101604081905262000034916200032c565b8383600362000044838262000446565b50600462000053828262000446565b5050600580543361010081026001600160a81b031990921660ff871617919091179091556200009c91506200008a84600a62000627565b6200009690846200063f565b620000f2565b337f3f2c9d57c068687834f0de942a9babb9e5acab57d516d3480a3c16ee165a4273620000cb84600a62000627565b620000d790846200063f565b60405190815260200160405180910390a2505050506200066f565b6001600160a01b038216620001225760405163ec442f0560e01b8152600060048201526024015b60405180910390fd5b620001306000838362000134565b5050565b6001600160a01b0383166200016357806002600082825462000157919062000659565b90915550620001d79050565b6001600160a01b03831660009081526020819052604090205481811015620001b85760405163391434e360e21b81526001600160a01b0385166004820152602481018290526044810183905260640162000119565b6001600160a01b03841660009081526020819052604090209082900390555b6001600160a01b038216620001f55760028054829003905562000214565b6001600160a01b03821660009081526020819052604090208054820190555b816001600160a01b0316836001600160a01b03167fddf252ad1be2c89b69c2b068fc378daa952ba7f163c4a11628f55a4df523b3ef836040516200025a91815260200190565b60405180910390a3505050565b634e487b7160e01b600052604160045260246000fd5b600082601f8301126200028f57600080fd5b81516001600160401b0380821115620002ac57620002ac62000267565b604051601f8301601f19908116603f01168101908282118183101715620002d757620002d762000267565b81604052838152602092508683858801011115620002f457600080fd5b600091505b83821015620003185785820183015181830184015290820190620002f9565b600093810190920192909252949350505050565b600080600080608085870312156200034357600080fd5b84516001600160401b03808211156200035b57600080fd5b62000369888389016200027d565b955060208701519150808211156200038057600080fd5b506200038f878288016200027d565b935050604085015160ff81168114620003a757600080fd5b6060959095015193969295505050565b600181811c90821680620003cc57607f821691505b602082108103620003ed57634e487b7160e01b600052602260045260246000fd5b50919050565b601f8211156200044157600081815260208120601f850160051c810160208610156200041c5750805b601f850160051c820191505b818110156200043d5782815560010162000428565b5050505b505050565b81516001600160401b0381111562000462576200046262000267565b6200047a81620004738454620003b7565b84620003f3565b602080601f831160018114620004b25760008415620004995750858301515b600019600386901b1c1916600185901b1785556200043d565b600085815260208120601f198616915b82811015620004e357888601518255948401946001909101908401620004c2565b5085821015620005025787850151600019600388901b60f8161c191681555b5050505050600190811b01905550565b634e487b7160e01b600052601160045260246000fd5b600181815b80851115620005695781600019048211156200054d576200054d62000512565b808516156200055b57918102915b93841c93908002906200052d565b509250929050565b600082620005825750600162000621565b81620005915750600062000621565b8160018114620005aa5760028114620005b557620005d5565b600191505062000621565b60ff841115620005c957620005c962000512565b50506001821b62000621565b5060208310610133831016604e8410600b8410161715620005fa575081810a62000621565b62000606838362000528565b80600019048211156200061d576200061d62000512565b0290505b92915050565b60006200063860ff84168362000571565b9392505050565b808202811582820484141762000621576200062162000512565b8082018082111562000621576200062162000512565b610dcf806200067f6000396000f3fe608060405234801561001057600080fd5b50600436106100ea5760003560e01c8063579158971161008c57806395d89b411161006657806395d89b41146101fe578063a9059cbb14610206578063dd62ed3e14610219578063f2fde38b1461025257600080fd5b8063579158971461019257806370a08231146101a55780638da5cb5b146101ce57600080fd5b806323b872dd116100c857806323b872dd14610142578063313ce5671461015557806340c10f191461016a57806342966c681461017f57600080fd5b806306fdde03146100ef578063095ea7b31461010d57806318160ddd14610130575b600080fd5b6100f7610265565b6040516101049190610aad565b60405180910390f35b61012061011b366004610b17565b6102f7565b6040519015158152602001610104565b6002545b604051908152602001610104565b610120610150366004610b41565b610311565b60055460405160ff9091168152602001610104565b61017d610178366004610b17565b610335565b005b61017d61018d366004610b7d565b610496565b61017d6101a0366004610b7d565b61057f565b6101346101b3366004610b96565b6001600160a01b031660009081526020819052604090205490565b6005546101e69061010090046001600160a01b031681565b6040516001600160a01b039091168152602001610104565b6100f7610652565b610120610214366004610b17565b610661565b610134610227366004610bb8565b6001600160a01b03918216600090815260016020908152604080832093909416825291909152205490565b61017d610260366004610b96565b61066f565b60606003805461027490610beb565b80601f01602080910402602001604051908101604052809291908181526020018280546102a090610beb565b80156102ed5780601f106102c2576101008083540402835291602001916102ed565b820191906000526020600020905b8154815290600101906020018083116102d057829003601f168201915b5050505050905090565b60003361030581858561074e565b60019150505b92915050565b60003361031f858285610760565b61032a8585856107df565b506001949350505050565b60055461010090046001600160a01b0316331461036d5760405162461bcd60e51b815260040161036490610c25565b60405180910390fd5b6001600160a01b0382166103c35760405162461bcd60e51b815260206004820152601b60248201527f43616e6e6f74206d696e7420746f207a65726f206164647265737300000000006044820152606401610364565b600081116104135760405162461bcd60e51b815260206004820152601d60248201527f416d6f756e74206d7573742062652067726561746572207468616e20300000006044820152606401610364565b60055461043990839061042a9060ff16600a610d60565b6104349084610d6f565b61083e565b6005546001600160a01b038316907f3f2c9d57c068687834f0de942a9babb9e5acab57d516d3480a3c16ee165a4273906104779060ff16600a610d60565b6104819084610d6f565b60405190815260200160405180910390a25050565b600081116104e65760405162461bcd60e51b815260206004820152601d60248201527f416d6f756e74206d7573742062652067726561746572207468616e20300000006044820152606401610364565b6005546104f79060ff16600a610d60565b6105019082610d6f565b3360009081526020819052604090205410156105565760405162461bcd60e51b8152602060048201526014602482015273496e73756666696369656e742062616c616e636560601b6044820152606401610364565b60055461057c90339061056d9060ff16600a610d60565b6105779084610d6f565b610878565b50565b60008111801561059157506127108111155b6105e85760405162461bcd60e51b815260206004820152602260248201527f416d6f756e74206d757374206265206265747765656e203120616e6420313030604482015261030360f41b6064820152608401610364565b6005546105ff90339061042a9060ff16600a610d60565b60055433907f3f2c9d57c068687834f0de942a9babb9e5acab57d516d3480a3c16ee165a4273906106349060ff16600a610d60565b61063e9084610d6f565b60405190815260200160405180910390a250565b60606004805461027490610beb565b6000336103058185856107df565b60055461010090046001600160a01b0316331461069e5760405162461bcd60e51b815260040161036490610c25565b6001600160a01b0381166106f45760405162461bcd60e51b815260206004820181905260248201527f4e6577206f776e65722063616e6e6f74206265207a65726f20616464726573736044820152606401610364565b600580546001600160a01b03838116610100818102610100600160a81b031985161790945560405193909204169182907f8be0079c531659141344cd1fd0a4f28419497f9722a3daafe3b4186f6b6457e090600090a35050565b61075b83838360016108ae565b505050565b6001600160a01b038381166000908152600160209081526040808320938616835292905220546000198110156107d957818110156107ca57604051637dc7a0d960e11b81526001600160a01b03841660048201526024810182905260448101839052606401610364565b6107d9848484840360006108ae565b50505050565b6001600160a01b03831661080957604051634b637e8f60e11b815260006004820152602401610364565b6001600160a01b0382166108335760405163ec442f0560e01b815260006004820152602401610364565b61075b838383610983565b6001600160a01b0382166108685760405163ec442f0560e01b815260006004820152602401610364565b61087460008383610983565b5050565b6001600160a01b0382166108a257604051634b637e8f60e11b815260006004820152602401610364565b61087482600083610983565b6001600160a01b0384166108d85760405163e602df0560e01b815260006004820152602401610364565b6001600160a01b03831661090257604051634a1406b160e11b815260006004820152602401610364565b6001600160a01b03808516600090815260016020908152604080832093871683529290522082905580156107d957826001600160a01b0316846001600160a01b03167f8c5be1e5ebec7d5bd14f71427d1e84f3dd0314c0f7b2291e5b200ac8c7c3b9258460405161097591815260200190565b60405180910390a350505050565b6001600160a01b0383166109ae5780600260008282546109a39190610d86565b90915550610a209050565b6001600160a01b03831660009081526020819052604090205481811015610a015760405163391434e360e21b81526001600160a01b03851660048201526024810182905260448101839052606401610364565b6001600160a01b03841660009081526020819052604090209082900390555b6001600160a01b038216610a3c57600280548290039055610a5b565b6001600160a01b03821660009081526020819052604090208054820190555b816001600160a01b0316836001600160a01b03167fddf252ad1be2c89b69c2b068fc378daa952ba7f163c4a11628f55a4df523b3ef83604051610aa091815260200190565b60405180910390a3505050565b600060208083528351808285015260005b81811015610ada57858101830151858201604001528201610abe565b506000604082860101526040601f19601f8301168501019250505092915050565b80356001600160a01b0381168114610b1257600080fd5b919050565b60008060408385031215610b2a57600080fd5b610b3383610afb565b946020939093013593505050565b600080600060608486031215610b5657600080fd5b610b5f84610afb565b9250610b6d60208501610afb565b9150604084013590509250925092565b600060208284031215610b8f57600080fd5b5035919050565b600060208284031215610ba857600080fd5b610bb182610afb565b9392505050565b60008060408385031215610bcb57600080fd5b610bd483610afb565b9150610be260208401610afb565b90509250929050565b600181811c90821680610bff57607f821691505b602082108103610c1f57634e487b7160e01b600052602260045260246000fd5b50919050565b60208082526021908201527f4f6e6c79206f776e65722063616e2063616c6c20746869732066756e6374696f6040820152603760f91b606082015260800190565b634e487b7160e01b600052601160045260246000fd5b600181815b80851115610cb7578160001904821115610c9d57610c9d610c66565b80851615610caa57918102915b93841c9390800290610c81565b509250929050565b600082610cce5750600161030b565b81610cdb5750600061030b565b8160018114610cf15760028114610cfb57610d17565b600191505061030b565b60ff841115610d0c57610d0c610c66565b50506001821b61030b565b5060208310610133831016604e8410600b8410161715610d3a575081810a61030b565b610d448383610c7c565b8060001904821115610d5857610d58610c66565b029392505050565b6000610bb160ff841683610cbf565b808202811582820484141761030b5761030b610c66565b8082018082111561030b5761030b610c6656fea26469706673582212200b9221f01b5fddc302b5f6c1e335dace63b5a950b612a3e42b0167c5e51e952064736f6c63430008140033",
  "linkReferences": {},
  "deployedLinkReferences": {}
}