{
  "_format": "hh-sol-artifact-1",
  "contractName": "RootRiseCrowdfunding",
  "sourceName": "contracts/RootRiseCrowdfunding.sol",
  "abi": [
    {
      "inputs": [
        {
          "internalType": "address",
          "name": "_stablecoinAddress",
          "type": "address"
        }
      ],
      "stateMutability": "nonpayable",
      "type": "constructor"
    },
    {
      "inputs": [
        {
          "internalType": "address",
          "name": "owner",
          "type": "address"
        }
      ],
      "name": "OwnableInvalidOwner",
      "type": "error"
    },
    {
      "inputs": [
        {
          "internalType": "address",
          "name": "account",
          "type": "address"
        }
      ],
      "name": "OwnableUnauthorizedAccount",
      "type": "error"
    },
    {
      "anonymous": false,
      "inputs": [
        {
          "indexed": true,
          "internalType": "uint256",
          "name": "projectId",
          "type": "uint256"
        },
        {
          "indexed": true,
          "internalType": "address",
          "name": "contributor",
          "type": "address"
        },
        {
          "indexed": false,
          "internalType": "uint256",
          "name": "amount",
          "type": "uint256"
        },
        {
          "indexed": false,
          "internalType": "uint256",
          "name": "timestamp",
          "type": "uint256"
        }
      ],
      "name": "ContributionMade",
      "type": "event"
    },
    {
      "anonymous": false,
      "inputs": [
        {
          "indexed": true,
          "internalType": "address",
          "name": "farmer",
          "type": "address"
        },
        {
          "indexed": false,
          "internalType": "uint256",
          "name": "timestamp",
          "type": "uint256"
        }
      ],
      "name": "FarmerAdded",
      "type": "event"
    },
    {
      "anonymous": false,
      "inputs": [
        {
          "indexed": true,
          "internalType": "address",
          "name": "farmer",
          "type": "address"
        },
        {
          "indexed": false,
          "internalType": "uint256",
          "name": "timestamp",
          "type": "uint256"
        }
      ],
      "name": "FarmerRemoved",
      "type": "event"
    },
    {
      "anonymous": false,
      "inputs": [
        {
          "indexed": true,
          "internalType": "uint256",
          "name": "projectId",
          "type": "uint256"
        },
        {
          "indexed": true,
          "internalType": "address",
          "name": "farmer",
          "type": "address"
        },
        {
          "indexed": false,
          "internalType": "uint256",
          "name": "amount",
          "type": "uint256"
        },
        {
          "indexed": false,
          "internalType": "uint256",
          "name": "timestamp",
          "type": "uint256"
        }
      ],
      "name": "FundsDisbursed",
      "type": "event"
    },
    {
      "anonymous": false,
      "inputs": [
        {
          "indexed": true,
          "internalType": "address",
          "name": "previousOwner",
          "type": "address"
        },
        {
          "indexed": true,
          "internalType": "address",
          "name": "newOwner",
          "type": "address"
        }
      ],
      "name": "OwnershipTransferred",
      "type": "event"
    },
    {
      "anonymous": false,
      "inputs": [
        {
          "indexed": true,
          "internalType": "uint256",
          "name": "projectId",
          "type": "uint256"
        },
        {
          "indexed": false,
          "internalType": "bool",
          "name": "successful",
          "type": "bool"
        },
        {
          "indexed": false,
          "internalType": "uint256",
          "name": "timestamp",
          "type": "uint256"
        }
      ],
      "name": "ProjectClosed",
      "type": "event"
    },
    {
      "anonymous": false,
      "inputs": [
        {
          "indexed": true,
          "internalType": "uint256",
          "name": "id",
          "type": "uint256"
        },
        {
          "indexed": true,
          "internalType": "address",
          "name": "farmer",
          "type": "address"
        },
        {
          "indexed": false,
          "internalType": "string",
          "name": "title",
          "type": "string"
        },
        {
          "indexed": false,
          "internalType": "uint256",
          "name": "goal",
          "type": "uint256"
        },
        {
          "indexed": false,
          "internalType": "uint256",
          "name": "deadline",
          "type": "uint256"
        }
      ],
      "name": "ProjectCreated",
      "type": "event"
    },
    {
      "anonymous": false,
      "inputs": [
        {
          "indexed": true,
          "internalType": "uint256",
          "name": "projectId",
          "type": "uint256"
        },
        {
          "indexed": true,
          "internalType": "address",
          "name": "contributor",
          "type": "address"
        },
        {
          "indexed": false,
          "internalType": "uint256",
          "name": "amount",
          "type": "uint256"
        },
        {
          "indexed": false,
          "internalType": "uint256",
          "name": "timestamp",
          "type": "uint256"
        }
      ],
      "name": "RefundClaimed",
      "type": "event"
    },
    {
      "inputs": [],
      "name": "MAXIMUM_DURATION",
      "outputs": [
        {
          "internalType": "uint256",
          "name": "",
          "type": "uint256"
        }
      ],
      "stateMutability": "view",
      "type": "function"
    },
    {
      "inputs": [],
      "name": "MINIMUM_CONTRIBUTION",
      "outputs": [
        {
          "internalType": "uint256",
          "name": "",
          "type": "uint256"
        }
      ],
      "stateMutability": "view",
      "type": "function"
    },
    {
      "inputs": [
        {
          "internalType": "address",
          "name": "_farmerAddress",
          "type": "address"
        }
      ],
      "name": "addFarmer",
      "outputs": [],
      "stateMutability": "nonpayable",
      "type": "function"
    },
    {
      "inputs": [
        {
          "internalType": "uint256",
          "name": "_projectId",
          "type": "uint256"
        }
      ],
      "name": "claimRefund",
      "outputs": [],
      "stateMutability": "nonpayable",
      "type": "function"
    },
    {
      "inputs": [
        {
          "internalType": "uint256",
          "name": "_projectId",
          "type": "uint256"
        }
      ],
      "name": "closeFailedProject",
      "outputs": [],
      "stateMutability": "nonpayable",
      "type": "function"
    },
    {
      "inputs": [
        {
          "internalType": "uint256",
          "name": "_projectId",
          "type": "uint256"
        },
        {
          "internalType": "uint256",
          "name": "_amount",
          "type": "uint256"
        }
      ],
      "name": "contribute",
      "outputs": [],
      "stateMutability": "nonpayable",
      "type": "function"
    },
    {
      "inputs": [
        {
          "internalType": "uint256",
          "name": "",
          "type": "uint256"
        },
        {
          "internalType": "address",
          "name": "",
          "type": "address"
        }
      ],
      "name": "contributions",
      "outputs": [
        {
          "internalType": "uint256",
          "name": "",
          "type": "uint256"
        }
      ],
      "stateMutability": "view",
      "type": "function"
    },
    {
      "inputs": [
        {
          "internalType": "string",
          "name": "_title",
          "type": "string"
        },
        {
          "internalType": "uint256",
          "name": "_goal",
          "type": "uint256"
        },
        {
          "internalType": "uint256",
          "name": "_durationInDays",
          "type": "uint256"
        }
      ],
      "name": "createProject",
      "outputs": [],
      "stateMutability": "nonpayable",
      "type": "function"
    },
    {
      "inputs": [
        {
          "internalType": "address",
          "name": "_farmer",
          "type": "address"
        },
        {
          "internalType": "string",
          "name": "_title",
          "type": "string"
        },
        {
          "internalType": "uint256",
          "name": "_goal",
          "type": "uint256"
        },
        {
          "internalType": "uint256",
          "name": "_durationInDays",
          "type": "uint256"
        }
      ],
      "name": "createProjectForFarmer",
      "outputs": [],
      "stateMutability": "nonpayable",
      "type": "function"
    },
    {
      "inputs": [
        {
          "internalType": "uint256",
          "name": "_projectId",
          "type": "uint256"
        }
      ],
      "name": "disburseFunds",
      "outputs": [],
      "stateMutability": "nonpayable",
      "type": "function"
    },
    {
      "inputs": [],
      "name": "emergencyWithdraw",
      "outputs": [],
      "stateMutability": "nonpayable",
      "type": "function"
    },
    {
      "inputs": [],
      "name": "getContractBalance",
      "outputs": [
        {
          "internalType": "uint256",
          "name": "",
          "type": "uint256"
        }
      ],
      "stateMutability": "view",
      "type": "function"
    },
    {
      "inputs": [
        {
          "internalType": "uint256",
          "name": "_projectId",
          "type": "uint256"
        },
        {
          "internalType": "address",
          "name": "_contributor",
          "type": "address"
        }
      ],
      "name": "getContribution",
      "outputs": [
        {
          "internalType": "uint256",
          "name": "",
          "type": "uint256"
        }
      ],
      "stateMutability": "view",
      "type": "function"
    },
    {
      "inputs": [
        {
          "internalType": "uint256",
          "name": "_projectId",
          "type": "uint256"
        }
      ],
      "name": "getProject",
      "outputs": [
        {
          "components": [
            {
              "internalType": "address",
              "name": "farmer",
              "type": "address"
            },
            {
              "internalType": "string",
              "name": "title",
              "type": "string"
            },
            {
              "internalType": "uint256",
              "name": "goal",
              "type": "uint256"
            },
            {
              "internalType": "uint256",
              "name": "deadline",
              "type": "uint256"
            },
            {
              "internalType": "uint256",
              "name": "amountRaised",
              "type": "uint256"
            },
            {
              "internalType": "bool",
              "name": "isOpen",
              "type": "bool"
            },
            {
              "internalType": "bool",
              "name": "fundsDisbursed",
              "type": "bool"
            },
            {
              "internalType": "uint256",
              "name": "createdAt",
              "type": "uint256"
            }
          ],
          "internalType": "struct RootRiseCrowdfunding.Project",
          "name": "",
          "type": "tuple"
        }
      ],
      "stateMutability": "view",
      "type": "function"
    },
    {
      "inputs": [
        {
          "internalType": "uint256",
          "name": "_projectId",
          "type": "uint256"
        }
      ],
      "name": "getProjectContributors",
      "outputs": [
        {
          "internalType": "address[]",
          "name": "",
          "type": "address[]"
        }
      ],
      "stateMutability": "view",
      "type": "function"
    },
    {
      "inputs": [],
      "name": "getTotalProjects",
      "outputs": [
        {
          "internalType": "uint256",
          "name": "",
          "type": "uint256"
        }
      ],
      "stateMutability": "view",
      "type": "function"
    },
    {
      "inputs": [
        {
          "internalType": "address",
          "name": "_farmer",
          "type": "address"
        }
      ],
      "name": "isFarmerWhitelisted",
      "outputs": [
        {
          "internalType": "bool",
          "name": "",
          "type": "bool"
        }
      ],
      "stateMutability": "view",
      "type": "function"
    },
    {
      "inputs": [],
      "name": "owner",
      "outputs": [
        {
          "internalType": "address",
          "name": "",
          "type": "address"
        }
      ],
      "stateMutability": "view",
      "type": "function"
    },
    {
      "inputs": [
        {
          "internalType": "uint256",
          "name": "",
          "type": "uint256"
        },
        {
          "internalType": "uint256",
          "name": "",
          "type": "uint256"
        }
      ],
      "name": "projectContributors",
      "outputs": [
        {
          "internalType": "address",
          "name": "",
          "type": "address"
        }
      ],
      "stateMutability": "view",
      "type": "function"
    },
    {
      "inputs": [],
      "name": "projectCounter",
      "outputs": [
        {
          "internalType": "uint256",
          "name": "",
          "type": "uint256"
        }
      ],
      "stateMutability": "view",
      "type": "function"
    },
    {
      "inputs": [
        {
          "internalType": "uint256",
          "name": "",
          "type": "uint256"
        }
      ],
      "name": "projects",
      "outputs": [
        {
          "internalType": "address",
          "name": "farmer",
          "type": "address"
        },
        {
          "internalType": "string",
          "name": "title",
          "type": "string"
        },
        {
          "internalType": "uint256",
          "name": "goal",
          "type": "uint256"
        },
        {
          "internalType": "uint256",
          "name": "deadline",
          "type": "uint256"
        },
        {
          "internalType": "uint256",
          "name": "amountRaised",
          "type": "uint256"
        },
        {
          "internalType": "bool",
          "name": "isOpen",
          "type": "bool"
        },
        {
          "internalType": "bool",
          "name": "fundsDisbursed",
          "type": "bool"
        },
        {
          "internalType": "uint256",
          "name": "createdAt",
          "type": "uint256"
        }
      ],
      "stateMutability": "view",
      "type": "function"
    },
    {
      "inputs": [
        {
          "internalType": "address",
          "name": "_farmerAddress",
          "type": "address"
        }
      ],
      "name": "removeFarmer",
      "outputs": [],
      "stateMutability": "nonpayable",
      "type": "function"
    },
    {
      "inputs": [],
      "name": "renounceOwnership",
      "outputs": [],
      "stateMutability": "nonpayable",
      "type": "function"
    },
    {
      "inputs": [],
      "name": "stablecoin",
      "outputs": [
        {
          "internalType": "contract IERC20",
          "name": "",
          "type": "address"
        }
      ],
      "stateMutability": "view",
      "type": "function"
    },
    {
      "inputs": [
        {
          "internalType": "address",
          "name": "",
          "type": "address"
        }
      ],
      "name": "totalContributions",
      "outputs": [
        {
          "internalType": "uint256",
          "name": "",
          "type": "uint256"
        }
      ],
      "stateMutability": "view",
      "type": "function"
    },
    {
      "inputs": [
        {
          "internalType": "address",
          "name": "newOwner",
          "type": "address"
        }
      ],
      "name": "transferOwnership",
      "outputs": [],
      "stateMutability": "nonpayable",
      "type": "function"
    },
    {
      "inputs": [
        {
          "internalType": "address",
          "name": "",
          "type": "address"
        }
      ],
      "name": "whitelistedFarmers",
      "outputs": [
        {
          "internalType": "bool",
          "name": "",
          "type": "bool"
        }
      ],
      "stateMutability": "view",
      "type": "function"
    }
  ],
  "bytecode": "0x60806040523480156200001157600080fd5b506040516200231838038062002318833981016040819052620000349162000136565b33806200005c57604051631e4fbdf760e01b8152600060048201526024015b60405180910390fd5b6200006781620000e6565b506001600160a01b038116620000c05760405162461bcd60e51b815260206004820152601a60248201527f496e76616c696420737461626c65636f696e2061646472657373000000000000604482015260640162000053565b600180546001600160a01b0319166001600160a01b039290921691909117905562000168565b600080546001600160a01b038381166001600160a01b0319831681178455604051919092169283917f8be0079c531659141344cd1fd0a4f28419497f9722a3daafe3b4186f6b6457e09190a35050565b6000602082840312156200014957600080fd5b81516001600160a01b03811681146200016157600080fd5b9392505050565b6121a080620001786000396000f3fe608060405234801561001057600080fd5b50600436106101a95760003560e01c80638da5cb5b116100f9578063e081dbf911610097578063f0f3f2c811610071578063f0f3f2c8146103d4578063f2fde38b146103f4578063f3a6ac5f14610407578063f8a518ed1461041a57600080fd5b8063e081dbf91461039b578063e6bf3fdc146103ae578063e9cbd822146103c157600080fd5b8063bf0c4dc2116100d3578063bf0c4dc21461034a578063c992d2491461035d578063cc212a4814610380578063db2e21bc1461039357600080fd5b80638da5cb5b146102f2578063928c4bbd14610303578063a01915d01461030e57600080fd5b806373274b891161016657806380c3f96d1161014057806380c3f96d146102ba578063812739a2146102cd5780638c590917146102d55780638d0bba03146102e857600080fd5b806373274b891461026757806374ff50c3146102875780637ed3deba1461029a57600080fd5b8063107046bd146101ae5780633d3b6865146101de5780633d891f59146102095780635b7baf64146102425780636f9fb98a14610257578063715018a61461025f575b600080fd5b6101c16101bc366004611ba2565b610423565b6040516101d5989796959493929190611c01565b60405180910390f35b6101f16101ec366004611c5b565b6104fe565b6040516001600160a01b0390911681526020016101d5565b610234610217366004611c99565b600560209081526000928352604080842090915290825290205481565b6040519081526020016101d5565b610255610250366004611ba2565b610536565b005b610234610806565b610255610878565b61027a610275366004611ba2565b61088c565b6040516101d59190611cc5565b610255610295366004611db5565b610929565b6102346102a8366004611e13565b60076020526000908152604090205481565b6102556102c8366004611e13565b610be3565b600254610234565b6102556102e3366004611c5b565b610d03565b610234620f424081565b6000546001600160a01b03166101f1565b6102346301e1338081565b61033a61031c366004611e13565b6001600160a01b031660009081526004602052604090205460ff1690565b60405190151581526020016101d5565b610255610358366004611ba2565b611086565b61033a61036b366004611e13565b60046020526000908152604090205460ff1681565b61025561038e366004611ba2565b6111ff565b61025561143e565b6102346103a9366004611c99565b6115e1565b6102556103bc366004611e13565b61160b565b6001546101f1906001600160a01b031681565b6103e76103e2366004611ba2565b6116c5565b6040516101d59190611e35565b610255610402366004611e13565b611857565b610255610415366004611ebb565b611892565b61023460025481565b600360205260009081526040902080546001820180546001600160a01b03909216929161044f90611f09565b80601f016020809104026020016040519081016040528092919081815260200182805461047b90611f09565b80156104c85780601f1061049d576101008083540402835291602001916104c8565b820191906000526020600020905b8154815290600101906020018083116104ab57829003601f168201915b505050600284015460038501546004860154600587015460069097015495969295919450925060ff808316926101009004169088565b6006602052816000526040600020818154811061051a57600080fd5b6000918252602090912001546001600160a01b03169150829050565b8060008111801561054957506002548111155b61056e5760405162461bcd60e51b815260040161056590611f3d565b60405180910390fd5b6000828152600360205260409020600581015460ff161580610594575080600301544210155b6105d75760405162461bcd60e51b815260206004820152601460248201527350726f6a656374207374696c6c2061637469766560601b6044820152606401610565565b80600201548160040154106106275760405162461bcd60e51b8152602060048201526016602482015275141c9bda9958dd081dd85cc81cdd58d8d95cdcd99d5b60521b6044820152606401610565565b6005810154610100900460ff161561067b5760405162461bcd60e51b8152602060048201526017602482015276119d5b991cc8185b1c9958591e48191a5cd89d5c9cd959604a1b6044820152606401610565565b6000838152600560209081526040808320338452909152902054806106da5760405162461bcd60e51b8152602060048201526015602482015274139bc818dbdb9d1c9a589d5d1a5bdb88199bdd5b99605a1b6044820152606401610565565b6000848152600560209081526040808320338452825280832083905560079091528120805483929061070d908490611f83565b909155505060015460405163a9059cbb60e01b8152336004820152602481018390526001600160a01b039091169063a9059cbb906044016020604051808303816000875af1158015610763573d6000803e3d6000fd5b505050506040513d601f19601f820116820180604052508101906107879190611f96565b6107c35760405162461bcd60e51b815260206004820152600d60248201526c1499599d5b990819985a5b1959609a1b6044820152606401610565565b60408051828152426020820152339186917f8faa8f78dba131fcf5a374c153d58b8f646053b7c2789321a5449f127258e1cd91015b60405180910390a350505050565b6001546040516370a0823160e01b81523060048201526000916001600160a01b0316906370a0823190602401602060405180830381865afa15801561084f573d6000803e3d6000fd5b505050506040513d601f19601f820116820180604052508101906108739190611fb8565b905090565b610880611b25565b61088a6000611b52565b565b6060816000811180156108a157506002548111155b6108bd5760405162461bcd60e51b815260040161056590611f3d565b6000838152600660209081526040918290208054835181840281018401909452808452909183018282801561091b57602002820191906000526020600020905b81546001600160a01b031681526001909101906020018083116108fd575b505050505091505b50919050565b610931611b25565b6001600160a01b03841660009081526004602052604090205460ff166109925760405162461bcd60e51b815260206004820152601660248201527511985c9b595c881b9bdd081dda1a5d195b1a5cdd195960521b6044820152606401610565565b60008351116109db5760405162461bcd60e51b81526020600482015260156024820152745469746c652063616e6e6f7420626520656d70747960581b6044820152606401610565565b620f4240821015610a1d5760405162461bcd60e51b815260206004820152600c60248201526b476f616c20746f6f206c6f7760a01b6044820152606401610565565b600081118015610a3d5750610a39620151806301e13380611fd1565b8111155b610a7c5760405162461bcd60e51b815260206004820152601060248201526f24b73b30b634b210323ab930ba34b7b760811b6044820152606401610565565b60028054906000610a8c83611ff3565b9091555060009050610aa1826201518061200c565b610aab9042612023565b60408051610100810182526001600160a01b038881168252602080830189815283850189905260608401869052600060808501819052600160a0860181905260c086018290524260e08701526002548252600390935294909420835181546001600160a01b0319169316929092178255925193945090929091820190610b319082612085565b50604082810151600280840191909155606084015160038401556080840151600484015560a084015160058401805460c087015115156101000261ff00199315159390931661ffff199091161791909117905560e090930151600690920191909155905490516001600160a01b03871691907f483013d4a1d5e8ba43089bda8f1a92b959e32d6fc582556f800267dd809e589390610bd490889088908790612145565b60405180910390a35050505050565b610beb611b25565b6001600160a01b038116610c3a5760405162461bcd60e51b8152602060048201526016602482015275496e76616c6964206661726d6572206164647265737360501b6044820152606401610565565b6001600160a01b03811660009081526004602052604090205460ff1615610ca35760405162461bcd60e51b815260206004820152601a60248201527f4661726d657220616c72656164792077686974656c69737465640000000000006044820152606401610565565b6001600160a01b03811660008181526004602052604090819020805460ff19166001179055517f19106c1337f2dc74ec347fc9845f5487daaf630d7f64e3c263e0174480de799090610cf89042815260200190565b60405180910390a250565b81600081118015610d1657506002548111155b610d325760405162461bcd60e51b815260040161056590611f3d565b6000838152600360205260409020600581015460ff16610d885760405162461bcd60e51b8152602060048201526011602482015270141c9bda9958dd081a5cc818db1bdcd959607a1b6044820152606401610565565b80600301544210610ddb5760405162461bcd60e51b815260206004820152601760248201527f50726f6a65637420646561646c696e65207061737365640000000000000000006044820152606401610565565b620f4240831015610e275760405162461bcd60e51b815260206004820152601660248201527510dbdb9d1c9a589d5d1a5bdb881d1bdbc81cdb585b1b60521b6044820152606401610565565b6001546040516370a0823160e01b815233600482015284916001600160a01b0316906370a0823190602401602060405180830381865afa158015610e6f573d6000803e3d6000fd5b505050506040513d601f19601f82011682018060405250810190610e939190611fb8565b1015610ed85760405162461bcd60e51b8152602060048201526014602482015273496e73756666696369656e742062616c616e636560601b6044820152606401610565565b6001546040516323b872dd60e01b8152336004820152306024820152604481018590526001600160a01b03909116906323b872dd906064016020604051808303816000875af1158015610f2f573d6000803e3d6000fd5b505050506040513d601f19601f82011682018060405250810190610f539190611f96565b610f915760405162461bcd60e51b815260206004820152600f60248201526e151c985b9cd9995c8819985a5b1959608a1b6044820152606401610565565b60008481526005602090815260408083203384529091528120549003610fe05760008481526006602090815260408220805460018101825590835291200180546001600160a01b031916331790555b600084815260056020908152604080832033845290915281208054859290611009908490612023565b9091555050336000908152600760205260408120805485929061102d908490612023565b92505081905550828160040160008282546110489190612023565b909155505060408051848152426020820152339186917ff9b7589b7a8d939b9da5dae90770378fe5fd7802be5d66432e85bedbdbfbcb7a91016107f8565b61108e611b25565b806000811180156110a157506002548111155b6110bd5760405162461bcd60e51b815260040161056590611f3d565b6000828152600360205260409020600581015460ff166111185760405162461bcd60e51b8152602060048201526016602482015275141c9bda9958dd08185b1c9958591e4818db1bdcd95960521b6044820152606401610565565b80600301544210156111635760405162461bcd60e51b815260206004820152601460248201527350726f6a656374207374696c6c2061637469766560601b6044820152606401610565565b80600201548160040154106111b35760405162461bcd60e51b8152602060048201526016602482015275141c9bda9958dd081dd85cc81cdd58d8d95cdcd99d5b60521b6044820152606401610565565b60058101805460ff19169055604080516000815242602082015284917f8a70887bac599c62ffabf5b44e10a5b295645c84cdd19d2e79d0db62283ef9b5910160405180910390a2505050565b8060008111801561121257506002548111155b61122e5760405162461bcd60e51b815260040161056590611f3d565b6000828152600360205260409020600581015460ff166112845760405162461bcd60e51b8152602060048201526011602482015270141c9bda9958dd081a5cc818db1bdcd959607a1b6044820152606401610565565b8060020154816004015410156112cb5760405162461bcd60e51b815260206004820152600c60248201526b11dbd85b081b9bdd081b595d60a21b6044820152606401610565565b6005810154610100900460ff161561131f5760405162461bcd60e51b8152602060048201526017602482015276119d5b991cc8185b1c9958591e48191a5cd89d5c9cd959604a1b6044820152606401610565565b60058101805461ff001916610100179055600154815460048084015460405163a9059cbb60e01b81526001600160a01b0393841692810192909252602482015291169063a9059cbb906044016020604051808303816000875af115801561138a573d6000803e3d6000fd5b505050506040513d601f19601f820116820180604052508101906113ae9190611f96565b6113ec5760405162461bcd60e51b815260206004820152600f60248201526e151c985b9cd9995c8819985a5b1959608a1b6044820152606401610565565b80546004820154604080519182524260208301526001600160a01b039092169185917f0ee83620b7aab7d22ea6be3695560b2b3c205a2271fe9db69335b59995366db5910160405180910390a3505050565b611446611b25565b6001546040516370a0823160e01b81523060048201526000916001600160a01b0316906370a0823190602401602060405180830381865afa15801561148f573d6000803e3d6000fd5b505050506040513d601f19601f820116820180604052508101906114b39190611fb8565b9050600081116114fe5760405162461bcd60e51b81526020600482015260166024820152754e6f2062616c616e636520746f20776974686472617760501b6044820152606401610565565b6001546001600160a01b031663a9059cbb6115216000546001600160a01b031690565b6040516001600160e01b031960e084901b1681526001600160a01b039091166004820152602481018490526044016020604051808303816000875af115801561156e573d6000803e3d6000fd5b505050506040513d601f19601f820116820180604052508101906115929190611f96565b6115de5760405162461bcd60e51b815260206004820152601b60248201527f456d657267656e6379207769746864726177616c206661696c656400000000006044820152606401610565565b50565b60008281526005602090815260408083206001600160a01b03851684529091529020545b92915050565b611613611b25565b6001600160a01b03811660009081526004602052604090205460ff166116745760405162461bcd60e51b815260206004820152601660248201527511985c9b595c881b9bdd081dda1a5d195b1a5cdd195960521b6044820152606401610565565b6001600160a01b03811660008181526004602052604090819020805460ff19169055517e3baea092da34d040bad24966d99bb1c2d78f0285b82fb7af784bbd80f9f49b90610cf89042815260200190565b61171a60405180610100016040528060006001600160a01b0316815260200160608152602001600081526020016000815260200160008152602001600015158152602001600015158152602001600081525090565b8160008111801561172d57506002548111155b6117495760405162461bcd60e51b815260040161056590611f3d565b6000838152600360209081526040918290208251610100810190935280546001600160a01b03168352600181018054919284019161178690611f09565b80601f01602080910402602001604051908101604052809291908181526020018280546117b290611f09565b80156117ff5780601f106117d4576101008083540402835291602001916117ff565b820191906000526020600020905b8154815290600101906020018083116117e257829003601f168201915b5050509183525050600282015460208201526003820154604082015260048201546060820152600582015460ff8082161515608084015261010090910416151560a082015260069091015460c0909101529392505050565b61185f611b25565b6001600160a01b03811661188957604051631e4fbdf760e01b815260006004820152602401610565565b6115de81611b52565b3360009081526004602052604090205460ff166118f15760405162461bcd60e51b815260206004820152601860248201527f4e6f7420612077686974656c6973746564206661726d657200000000000000006044820152606401610565565b600083511161193a5760405162461bcd60e51b81526020600482015260156024820152745469746c652063616e6e6f7420626520656d70747960581b6044820152606401610565565b620f424082101561197c5760405162461bcd60e51b815260206004820152600c60248201526b476f616c20746f6f206c6f7760a01b6044820152606401610565565b60008111801561199c5750611998620151806301e13380611fd1565b8111155b6119db5760405162461bcd60e51b815260206004820152601060248201526f24b73b30b634b210323ab930ba34b7b760811b6044820152606401610565565b600280549060006119eb83611ff3565b9091555060009050611a00826201518061200c565b611a0a9042612023565b6040805161010081018252338152602080820188815282840188905260608301859052600060808401819052600160a0850181905260c085018290524260e08601526002548252600390935293909320825181546001600160a01b0319166001600160a01b039091161781559251939450909290820190611a8b9082612085565b50604082810151600280840191909155606084015160038401556080840151600484015560a084015160058401805460c087015115156101000261ff00199315159390931661ffff199091161791909117905560e090930151600690920191909155905490513391907f483013d4a1d5e8ba43089bda8f1a92b959e32d6fc582556f800267dd809e5893906107f890889088908790612145565b6000546001600160a01b0316331461088a5760405163118cdaa760e01b8152336004820152602401610565565b600080546001600160a01b038381166001600160a01b0319831681178455604051919092169283917f8be0079c531659141344cd1fd0a4f28419497f9722a3daafe3b4186f6b6457e09190a35050565b600060208284031215611bb457600080fd5b5035919050565b6000815180845260005b81811015611be157602081850181015186830182015201611bc5565b506000602082860101526020601f19601f83011685010191505092915050565b6001600160a01b038916815261010060208201819052600090611c268382018b611bbb565b604084019990995250506060810195909552608085019390935290151560a0840152151560c083015260e09091015292915050565b60008060408385031215611c6e57600080fd5b50508035926020909101359150565b80356001600160a01b0381168114611c9457600080fd5b919050565b60008060408385031215611cac57600080fd5b82359150611cbc60208401611c7d565b90509250929050565b6020808252825182820181905260009190848201906040850190845b81811015611d065783516001600160a01b031683529284019291840191600101611ce1565b50909695505050505050565b634e487b7160e01b600052604160045260246000fd5b600082601f830112611d3957600080fd5b813567ffffffffffffffff80821115611d5457611d54611d12565b604051601f8301601f19908116603f01168101908282118183101715611d7c57611d7c611d12565b81604052838152866020858801011115611d9557600080fd5b836020870160208301376000602085830101528094505050505092915050565b60008060008060808587031215611dcb57600080fd5b611dd485611c7d565b9350602085013567ffffffffffffffff811115611df057600080fd5b611dfc87828801611d28565b949794965050505060408301359260600135919050565b600060208284031215611e2557600080fd5b611e2e82611c7d565b9392505050565b602080825282516001600160a01b0316828201528201516101006040830181905260009190611e68610120850183611bbb565b91506040850151606085015260608501516080850152608085015160a085015260a0850151151560c085015260c0850151611ea760e086018215159052565b5060e0949094015192909301919091525090565b600080600060608486031215611ed057600080fd5b833567ffffffffffffffff811115611ee757600080fd5b611ef386828701611d28565b9660208601359650604090950135949350505050565b600181811c90821680611f1d57607f821691505b60208210810361092357634e487b7160e01b600052602260045260246000fd5b602080825260169082015275141c9bda9958dd08191bd95cc81b9bdd08195e1a5cdd60521b604082015260600190565b634e487b7160e01b600052601160045260246000fd5b8181038181111561160557611605611f6d565b600060208284031215611fa857600080fd5b81518015158114611e2e57600080fd5b600060208284031215611fca57600080fd5b5051919050565b600082611fee57634e487b7160e01b600052601260045260246000fd5b500490565b60006001820161200557612005611f6d565b5060010190565b808202811582820484141761160557611605611f6d565b8082018082111561160557611605611f6d565b601f82111561208057600081815260208120601f850160051c8101602086101561205d5750805b601f850160051c820191505b8181101561207c57828155600101612069565b5050505b505050565b815167ffffffffffffffff81111561209f5761209f611d12565b6120b3816120ad8454611f09565b84612036565b602080601f8311600181146120e857600084156120d05750858301515b600019600386901b1c1916600185901b17855561207c565b600085815260208120601f198616915b82811015612117578886015182559484019460019091019084016120f8565b50858210156121355787850151600019600388901b60f8161c191681555b5050505050600190811b01905550565b6060815260006121586060830186611bbb565b6020830194909452506040015291905056fea264697066735822122074a55ed5912ea36c127b19fc44a3414fa2e4f8e1dd560ed490904b822fc85bd864736f6c63430008140033",
  "linkReferences": {},
  "deployedLinkReferences": {}
}